S02700004C69667473756D756C61746F725F42617369635F56315F41756667616265432E737265630E
S11300000C942A000C9447000C9447000C9447006D
S11300100C9447000C9447000C9447000C94470040
S11300200C9447000C9447000C9447000C94470030
S11300300C9447000C9447000C9447000C94470020
S11300400C9447000C9447000C9447000C94470010
S11300500C94470011241FBECFE5D8E0DEBFCDBF0E
S113006010E0A0E6B0E0E0E5F8E002C005900D92F3
S1130070AE36B107D9F720E0AEE6B0E001C01D927C
S1130080A339B207E1F70E9452010C9426040C94A0
S11300900000E0916000F0916100209162003091D5
S11300A063002E173F07B1F590917400913091F5DC
S11300B036C080838091600090916100019620E0B9
S11300C08636920709F030F49093610080936000C3
S11300D090E025C084E690E09093610080936000F6
S11300E081E08093740090E01AC090E018C090E022
S11300F016C090E014C090E012C09091640089177B
S1130100A1F390916500981791F39091660089137B
S1130110D0CFEFCF909168008913EFCFECCF892F28
S11301200895E0916200F0916300809160009091E5
S11301306100E817F90721F480917400882339F1EC
S113014080818093680091E020916700281708F06F
S113015090E09093750087E0808380916200909195
S11301606300019620E08636920709F030F49093FC
S113017063008093620080E0089584E690E09093A9
S11301806300809362001092740080E0089581E01F
S1130190089580916E0090916F00009701F5109280
S11301A0710010927000109273001092720080918E
S11301B0680090E020916700821B91099C012295C0
S11301C03295307F3227207F322793FF2CC0319520
S11301D02195310930936F0020936E000AC020915D
S11301E0700030917100243031051CF08430910589
S11301F03CF480EA9FE090937D0080937C00089516
S11302002830310514F008973CF480ED97E0909382
S11302107D0080937C00089588EE93E090937D00A8
S113022080937C00089530936F0020936E00E1CF9B
S11302308830C9F038F4823091F0843091F0813004
S1130240A1F40BC0803259F018F4803131F00DC0A4
S1130250803439F0803839F008C080E0089581E0B6
S1130260089582E0089583E0089587E00895CF9388
S1130270C0E801C0C82F8C2F0E945503813031F48F
S11302808C2F869529F0CC23A9F302C0C69599F743
S11302908C2FCF910895853010F0863011F40E9490
S11302A0CD0308950E9428020E942E0203E014E068
S11302B0FF24F394809167000E944B010E94A003E5
S11302C0809367000E94460280917600823011F18B
S11302D028F4882349F08130A9F07EC0833049F1A5
S11302E0843009F464C078C00E94A003882319F004
S11302F00E94C30371C0109376000E94A0038093F0
S113030067006AC00E949100811166C082E08093F8
S1130310760062C0809167000E945B03882331F0FD
S11303206091670080E00E94710356C000937600DC
S113033053C09091670080916800981789F10E94DA
S1130340C90060917C0070917D00809175000E94CD
S113035079038091720090917300019690937300D9
S11303608093720020917C0030917D008217930766
S113037099F580916E0090916F00019790936F00B2
S113038080936E008091700090917100019690931B
S113039071008093700010927300109272001CC060
S11303A010926F0010926E001093760015C0609149
S11303B0670082E00E947103809167000E945B03E2
S11303C0823051F4F0927600809167000E94F3032A
S11303D0809167000E9405040E943701D82F0E9473
S11303E01801C82F843008F065CF80916700C817C2
S11303F009F460CF8C2F0E94490081115BCFD0316A
S113040020F48C2F0E94E10355CF8C2F0E94D0033F
S113041051CFCF93DF93E5E8F0E02DE830E0DF0142
S113042011978C91811106C08081181654F4815063
S1130430808307C0823029F48081843014F48F5F74
S113044080833296E217F30751F7DF91CF91089535
S11304508FEF87BB84BB8ABB11BA089510928300C7
S113046010928D00109292001092910010928100CF
S1130470E4E8F0E011821082138212821582148261
S1130480178216828FE1809380000895409179004D
S113049050917A009A013695279536952795369589
S11304A02795A7E3BAE10E9417040024880F991F37
S11304B0001C880F991F001C892F902D68E873E198
S11304C0869F9001879F300D969F300D112442170F
S11304D0530731F40E94090210927A0010927900B5
S11304E080917B00893009F128F4833041F0863013
S11304F089F043C08C3021F18D3069F13EC0E09128
S113050085000E2E000CFF0BE759FF4F80818160A0
S113051085BB33C0E09187000E2E000CFF0BE7591A
S1130520FF4F8081826085BB28C0E09189000E2E38
S1130530000CFF0BE759FF4F8081846085BB1DC011
S1130540E0918B000E2E000CFF0BE759FF4F8081CA
S1130550886085BB12C081E080937B008091790024
S113056090917A00019690937A008093790090910B
S11305707E00911131C021E056C080917B008F5FD5
S113058080937B002091790030917A002F5F3F4F58
S113059030937A002093790090917E00992309F496
S11305A047C02DEC829F212D112426952695322FAC
S11305B0330F330F230F821B813071F028F0823008
S11305C0B1F08330F9F028C094FD10927F0090FFC1
S11305D023C01092820020C095FF03C081E0809365
S11305E07F0091FF19C081E08093820015C096FFBF
S11305F003C082E080937F0092FF0EC082E080936C
S113060082000AC099231CF483E080937F0093FF47
S113061003C083E080938200892F807F19F02091AA
S11306208D0001C021E09F7031F09091910004C0D1
S113063021E091E001C091E080918300811104C028
S1130640809180008F7301C08FE380938F0030917D
S11306509200311103C03091900001C037E0309313
S11306608C0030E8239FA00111243091810060E4C4
S1130670369F90011124242B822B88BB20917F006C
S1130680822F880F880F880F3091820040E2349FB8
S113069090011124282B80918C00282B60E8969FD0
S11306A0C0011124822B8BBB089590B3982381E061
S11306B009F480E00895E82FF0E0EE0FFF1FEC57F7
S11306C0FF4FE1810E2E000CFF0BE759FF4F908185
S11306D0903F29F081E0911103C080E0089582E009
S11306E00895E62FF0E0EE0FFF1FEC57FF4F8083D5
S11306F008956115710519F1209177003091780002
S11307006217730738F02F5F3F4F309378002093C0
S1130710770008951092780010927700813041F4A8
S113072080918000813358F48F5F80938000089516
S113073080918000882319F081508093800008956F
S113074090918000903149F018F49923A1F00BC0E6
S1130750903229F0903329F006C081E011C082E084
S11307600FC083E00DC0913340F480918E00981344
S113077006C085E605C080E003C088EC01C084E6BD
S113078090938E0008950E94A003882329F068EEB8
S113079073E080E00E9479030895809390000895A7
S11307A0843070F421E030E0A90102C0440F551FE9
S11307B08A95E2F7CA0190917E00892B80937E008E
S11307C00895843078F48C5F21E030E0A90102C000
S11307D0440F551F8A95E2F7CA0190917E00892B38
S11307E080937E000895843078F421E030E0A901FC
S11307F002C0440F551F8A95E2F7CA018095909173
S11308007E00892380937E000895843078F424E068
S1130810280F81E090E002C0880F991F2A95E2F723
S1130820809590917E00892380937E000895A29FF5
S1130830B001B39FC001A39F700D811D1124911DB0
S1130840B29F700D811D1124911D0895F894FFCF5E
S111085064006400070707070700103070F00B
S9030000FC
