S02700004C69667473756D756C61746F725F42617369635F56315F41756667616265432E737265630E
S11300000C942A000C9447000C9447000C9447006D
S11300100C9447000C9447000C9447000C94470040
S11300200C9447000C9447000C9447000C94470030
S11300300C9447000C9447000C9447000C94470020
S11300400C9447000C9447000C9447000C94470010
S11300500C94470011241FBECFE5D8E0DEBFCDBF0E
S113006010E0A0E6B0E0E8EDF7E002C005900D92E4
S1130070AC36B107D9F720E0ACE6B0E001C01D9280
S1130080AE38B207E1F70E942C010C94EA030C94F9
S11300900000E0916000F0916100209162003091D5
S11300A063002E173F07B1F590916E00913091F5E2
S11300B036C080838091600090916100019620E0B9
S11300C08837920709F030F49093610080936000C0
S11300D090E025C086E790E09093610080936000F3
S11300E081E080936E0090E01AC090E018C090E028
S11300F016C090E014C090E012C090917600891769
S1130100A1F390917700981791F390917800891357
S1130110D0CFEFCF909165008913EFCFECCF892F2B
S11301200895E0916200F0916300809160009091E5
S11301306100E817F90721F480916E00882339F1F2
S113014080818093650091E020916400281708F075
S113015090E090936F0087E080838091620090919B
S11301606300019620E08837920709F030F49093F9
S113017063008093620080E0089586E790E09093A6
S113018063008093620010926E0080E0089581E025
S1130190089590916D009230A8F020916C0030E0A9
S11301A0492F50E0B90162507109641775076CF06A
S11301B0953070F0255031092417350764F028EE86
S11301C033E00BC020EA3FE008C020EA3FE005C06E
S11301D020ED37E002C020ED37E09F5F90936D0083
S11301E0C90108958830C9F038F4823091F0843020
S11301F091F08130A1F40BC0803259F018F48031B1
S113020031F00DC0803439F0803839F008C080E016
S1130210089581E0089582E0089583E0089587E0D9
S11302200895CF93C0E801C0C82F8C2F0E941903F2
S1130230813031F48C2F869529F0CC23A9F302C0A8
S1130240C69599F78C2FCF910895853010F086309C
S113025011F40E94910308950E94EC010E94F2019E
S113026003E014E0FF24F394809170008230C9F11C
S113027028F4882351F08130B1F068C0833009F448
S11302803FC0843009F44DC061C00E9464038823D8
S113029019F00E9487035AC0109370000E946403EF
S11302A08093640053C00E94910081114FC08091DB
S11302B0640090E020916500821B910909F446C016
S11302C09C01992324F422273327281B390B2295D8
S11302D0207F20936C0010926D0082E08093700068
S11302E035C0809164000E941F03882331F060911F
S11302F0640080E00E94350329C00093700026C08A
S11303009091640080916500981741F00E94C900A3
S1130310BC0180916F000E943D0318C010937000CF
S113032015C06091640082E00E94350380916400EE
S11303300E941F03823051F4F09270008091640097
S11303400E94B703809164000E94C90380916400F5
S11303500E9425010E946403809364000E940A02A3
S11303600E941101D82F0E94F200C82F843008F097
S11303707BCF80916400C81709F476CF8C2F0E943C
S11303804900811171CFD03120F48C2F0E94A50334
S11303906BCF8C2F0E94940367CFCF93DF93E0E859
S11303A0F0E028E830E0DF0111978C91811106C05C
S11303B08081181654F48150808307C0823029F458
S11303C08081843014F48F5F80833296E217F307C0
S11303D051F7DF91CF9108958FEF87BB84BB8ABB20
S11303E011BA089510927E001092880010928D0028
S11303F010928C0010927C00EFE7F0E011821082E2
S11304001382128215821482178216828FE18093DE
S11304107B00089540917300509174009A013695C1
S113042027953695279536952795A7E3BAE10E9437
S1130430DB030024880F991F001C880F991F001CE0
S1130440892F902D68E873E1869F9001879F300D76
S1130450969F300D11244217530731F40E94CD01A9
S1130460109274001092730080917500893009F124
S113047028F4833041F0863089F043C08C3021F178
S11304808D3069F13EC0E09180000E2E000CFF0B10
S1130490EA59FF4F8081816085BB33C0E0918200BF
S11304A00E2E000CFF0BEA59FF4F8081826085BB42
S11304B028C0E09184000E2E000CFF0BEA59FF4F78
S11304C08081846085BB1DC0E09186000E2E000CE7
S11304D0FF0BEA59FF4F8081886085BB12C081E021
S11304E080937500809173009091740001969093AD
S11304F074008093730090917900911131C021E0D0
S113050056C0809175008F5F8093750020917300B1
S1130510309174002F5F3F4F309374002093730029
S113052090917900992309F447C02DEC829F212DE5
S1130530112426952695322F330F330F230F821B58
S1130540813071F028F08230B1F08330F9F028C0A6
S113055094FD10927A0090FF23C010927D0020C079
S113056095FF03C081E080937A0091FF19C081E078
S113057080937D0015C096FF03C082E080937A00CB
S113058092FF0EC082E080937D000AC099231CF480
S113059083E080937A0093FF03C083E080937D001F
S11305A0892F807F19F02091880001C021E09F707D
S11305B031F090918C0004C021E091E001C091E001
S11305C080917E00811104C080917B008F7301C0F3
S11305D08FE380938A0030918D00311103C03091F4
S11305E08B0001C037E03093870030E8239FA001DF
S11305F0112430917C0060E4369F90011124242B57
S1130600822B88BB20917A00822F880F880F880F55
S113061030917D0040E2349F90011124282B809179
S11306208700282B60E8969FC0011124822B8BBB86
S1130630089590B3982381E009F480E00895E82FA9
S1130640F0E0EE0FFF1FE158FF4FE1810E2E000C8A
S1130650FF0BEA59FF4F9081903F29F081E09111FF
S113066003C080E0089582E00895E62FF0E0EE0FE5
S1130670FF1FE158FF4F808308956115710519F13B
S113068020917100309172006217730738F02F5F68
S11306903F4F3093720020937100089510927200BE
S11306A010927100813041F480917B00813358F4C1
S11306B08F5F80937B00089580917B00882319F0DD
S11306C0815080937B00089590917B00903149F094
S11306D018F49923A1F00BC0903229F0903329F03B
S11306E006C081E011C082E00FC083E00DC09133E9
S11306F040F480918900981306C085E605C080E027
S113070003C088EC01C084E69093890008950E9498
S11307106403882329F068EE73E080E00E943D03BF
S1130720089580938B000895843070F421E030E0C4
S1130730A90102C0440F551F8A95E2F7CA0190919E
S11307407900892B809379000895843078F48C5F44
S113075021E030E0A90102C0440F551F8A95E2F759
S1130760CA0190917900892B80937900089584308F
S113077078F421E030E0A90102C0440F551F8A95A6
S1130780E2F7CA01809590917900892380937900DA
S11307900895843078F424E0280F81E090E002C0CA
S11307A0880F991F2A95E2F7809590917900892303
S11307B0809379000895A29FB001B39FC001A39FC5
S11307C0700D811D1124911DB29F700D811D112486
S10B07D0911D0895F894FFCF78
S10F07D876007600070700103070F00077
S9030000FC
