S02700004C69667473756D756C61746F725F42617369635F56315F41756667616265432E737265630E
S11300000C942A000C9447000C9447000C9447006D
S11300100C9447000C9447000C9447000C94470040
S11300200C9447000C9447000C9447000C94470030
S11300300C9447000C9447000C9447000C94470020
S11300400C9447000C9447000C9447000C94470010
S11300500C94470011241FBECFE5D8E0DEBFCDBF0E
S113006010E0A0E6B0E0EAE6F7E002C005900D92E9
S1130070A836B107D9F720E0A8E6B0E001C01D9288
S1130080AB38B207E1F70E94F3000C94B3030C946D
S1130090000090916C00933010F010926C00E8E630
S11300A0F0E09481292F30E04381F9013196642FE7
S11300B070E0E617F70799F0411102C0923089F019
S11300C0F901E859FF4F80839F5F933020F49093A8
S11300D06C0080E0089510926C0080E0089581E047
S11300E0089581E00895CF93DF93EC01A8E6B0E092
S11300F01396EC91139714969C91E91791F0F0E004
S1130100E859FF4F8081888380916B008F5F833033
S113011020F480936B0080E005C010926B0080E0B7
S113012001C081E0DF91CF91089520916E002230CB
S1130130A0F080916D0090E0422F50E0BC0162502D
S113014071096417750764F0253068F00597841702
S1130150950764F088EE93E0089580EA9FE008959F
S113016080EA9FE0089580ED97E0089580ED97E0A0
S113017008958830C9F038F4823091F0843091F0D9
S11301808130A1F40BC0803259F018F4803131F081
S11301900DC0803439F0803839F008C080E008950B
S11301A081E0089582E0089583E0089587E008954A
S11301B0CF93C0E801C0C82F8C2F0E94E202813087
S11301C031F48C2F869529F0CC23A9F302C0C6956F
S11301D099F78C2FCF910895853010F0863011F463
S11301E00E945A030895CF93DF931F92CDB7DEB7D1
S11301F00E94B5010E94BB010F2EF3E0FF2EF02DEB
S113020004E0EE24E394809160000E94EC000E94DC
S11302102D03809360000E94D3010E94D8008111B5
S11302200E94490080917000823009F448C028F48B
S1130230882351F08130B1F0E6CF833009F44EC009
S1130240843009F45CC0DFCF0E942D03882319F0A9
S11302500E945003D8CF009370000E942D03809316
S11302606000D1CFCE0101960E9473008111CBCFE3
S11302701981812F0E94B900809361002091600050
S113028030E0281B310909F4BECF32F4E0926F004C
S113029031952195310902C010926F002295207F7B
S11302A020936D0010926E00103118F40E946E03BA
S11302B002C00E945D0382E080937000A4CF80910D
S11302C060000E94E802882331F06091600080E0C1
S11302D00E94FE0298CFF092700095CF909160003A
S11302E080916100981741F00E949500BC018091B3
S11302F06F000E94060387CF0093700084CF609143
S1130300600082E00E94FE02809160000E94E80288
S1130310823009F078CFE0927000809160000E94F2
S11303208003809160000E9492036DCFCF93DF938E
S1130330EDE7F0E025E830E0DF0111978C918111C1
S113034006C08081181654F48150808307C082301F
S113035029F48081843014F48F5F80833296E2170D
S1130360F30751F7DF91CF9108958FEF87BB84BBDB
S11303708ABB11BA089510927B00109285001092E6
S11303808A001092890010927900ECE7F0E0118263
S113039010821382128215821482178216828FE1D0
S11303A080937800089540917300509174009A01ED
S11303B0369527953695279536952795A7E3BAE17F
S11303C00E94A4030024880F991F001C880F991F02
S11303D0001C892F902D68E873E1869F9001879F08
S11303E0300D969F300D11244217530731F40E94AB
S11303F096011092740010927300809175008930F8
S113040009F128F4833041F0863089F043C08C3000
S113041021F18D3069F13EC0E0917D000E2E000C7B
S1130420FF0BEE59FF4F8081816085BB33C0E091A3
S11304307F000E2E000CFF0BEE59FF4F808182606F
S113044085BB28C0E09181000E2E000CFF0BEE59F5
S1130450FF4F8081846085BB1DC0E09183000E2E18
S1130460000CFF0BEE59FF4F8081886085BB12C0E2
S113047081E08093750080917300909174000196DF
S1130480909374008093730090917600911131C021
S113049021E056C0809175008F5F80937500209194
S11304A07300309174002F5F3F4F3093740020939A
S11304B0730090917600992309F447C02DEC829F34
S11304C0212D112426952695322F330F330F230F18
S11304D0821B813071F028F08230B1F08330F9F062
S11304E028C094FD1092770090FF23C010927A00E8
S11304F020C095FF03C081E08093770091FF19C06D
S113050081E080937A0015C096FF03C082E0809357
S1130510770092FF0EC082E080937A000AC099238C
S11305201CF483E08093770093FF03C083E08093FF
S11305307A00892F807F19F02091850001C021E085
S11305409F7031F09091890004C021E091E001C0D6
S113055091E080917B00811104C0809178008F73B9
S113056001C08FE38093870030918A00311103C06A
S11305703091880001C037E03093840030E8239F35
S1130580A00111243091790060E4369F9001112478
S1130590242B822B88BB20917700822F880F880F11
S11305A0880F30917A0040E2349F90011124282B67
S11305B080918400282B60E8969FC0011124822B2F
S11305C08BBB089590B3982381E009F480E00895EB
S11305D0E82FF0E0EE0FFF1FE458FF4FE1810E2EED
S11305E0000CFF0BEE59FF4F9081903F29F081E002
S11305F0911103C080E0089582E00895E62FF0E0B1
S1130600EE0FFF1FE458FF4F8083089561157105B5
S113061019F120917100309172006217730738F05C
S11306202F5F3F4F30937200209371000895109212
S1130630720010927100813041F48091780081330E
S113064058F48F5F80937800089580917800882310
S113065019F081508093780008959091780090313A
S113066049F018F49923A1F00BC0903229F090338B
S113067029F006C081E011C082E00FC083E00DC004
S1130680913340F480918600981306C085E605C036
S113069080E003C088EC01C084E69093860008954E
S11306A00E942D03882329F068EE73E080E00E9405
S11306B006030895809388000895843070F421E03F
S11306C030E0A90102C0440F551F8A95E2F7CA0120
S11306D090917600892B809376000895843078F485
S11306E08C5F21E030E0A90102C0440F551F8A95B8
S11306F0E2F7CA0190917600892B809376000895E1
S1130700843078F421E030E0A90102C0440F551F81
S11307108A95E2F7CA0180959091760089238093A7
S113072076000895843078F424E0280F81E090E086
S113073002C0880F991F2A95E2F780959091760060
S11307408923809376000895A29FB001B39FC001CE
S1130750A39F700D811D1124911DB29F700D811DE9
S10D07601124911D0895F894FFCFB1
S10B076A070700103070F000D5
S9030000FC
