:100000000C942A000C9447000C9447000C94470071
:100010000C9447000C9447000C9447000C94470044
:100020000C9447000C9447000C9447000C94470034
:100030000C9447000C9447000C9447000C94470024
:100040000C9447000C9447000C9447000C94470014
:100050000C94470011241FBECFE5D8E0DEBFCDBF12
:1000600010E0A0E6B0E0E6E7F3E002C005900D92F4
:10007000A636B107D9F720E0A6E6B0E001C01D9290
:10008000AE37B207E1F70E9450000C94B9010C940E
:100090000000853010F0863011F40E94A701089509
:1000A0000E947A000E948000809160000E944900B6
:1000B0000E949800F9CFCF93DF93E0E7F0E028E7C4
:1000C00030E0DF0111978C91811106C080811816F4
:1000D00054F48150808307C0823029F480818430B9
:1000E00014F48F5F80833296E217F30751F7DF91A4
:1000F000CF9108958FEF87BB84BB8ABB11BA089557
:1001000010926E001092780010927D0010927C0088
:1001100010926C00EFE6F0E01182108213821282DE
:1001200015821482178216828FE180936B000895E6
:1001300040916600509167009A0136952795369553
:10014000279536952795A7E3BAE10E94AA010024D6
:10015000880F991F001C880F991F001C892F902D54
:1001600068E873E1869F9001879F300D969F300D60
:1001700011244217530731F40E945B00109267006C
:100180001092660080916800893009F128F483306C
:1001900041F0863089F043C08C3021F18D3069F117
:1001A0003EC0E09170000E2E000CFF0BEF59FF4F88
:1001B0008081816085BB33C0E09172000E2E000CFF
:1001C000FF0BEF59FF4F8081826085BB28C0E09113
:1001D00074000E2E000CFF0BEF59FF4F80818460DE
:1001E00085BB1DC0E09176000E2E000CFF0BEF5971
:1001F000FF4F8081886085BB12C081E080936800DA
:1002000080916600909167000196909367008093BB
:10021000660090916900911131C021E056C0809133
:1002200068008F5F809368002091660030916700BE
:100230002F5F3F4F309367002093660090916900D5
:10024000992309F447C02DEC829F212D1124269576
:100250002695322F330F330F230F821B813071F01D
:1002600028F08230B1F08330F9F028C094FD10926C
:100270006A0090FF23C010926D0020C095FF03C05C
:1002800081E080936A0091FF19C081E080936D0046
:1002900015C096FF03C082E080936A0092FF0EC0F3
:1002A00082E080936D000AC099231CF483E0809360
:1002B0006A0093FF03C083E080936D00892F807FE5
:1002C00019F02091780001C021E09F7031F09091E9
:1002D0007C0004C021E091E001C091E080916E00BB
:1002E000811104C080916B008F7301C08FE38093F4
:1002F0007A0030917D00311103C030917B0001C044
:1003000037E03093770030E8239FA001112430912B
:100310006C0060E4369F90011124242B822B88BB53
:1003200020916A00822F880F880F880F30916D000E
:1003300040E2349F90011124282B80917700282BD4
:1003400060E8969FC0011124822B8BBB0895809397
:100350007B000895A29FB001B39FC001A39F700DC1
:10036000811D1124911DB29F700D811D1124911DBD
:060370000895F894FFCF90
:060376000700103070F0DA
:00000001FF
