S02700004C69667473756D756C61746F725F42617369635F56315F41756667616265412E7372656310
S11300000C942A000C9447000C9447000C9447006D
S11300100C9447000C9447000C9447000C94470040
S11300200C9447000C9447000C9447000C94470030
S11300300C9447000C9447000C9447000C94470020
S11300400C9447000C9447000C9447000C94470010
S11300500C94470011241FBECFE5D8E0DEBFCDBF0E
S113006010E0A0E6B0E0E0E5F6E002C005900D92F5
S1130070A836B107D9F720E0A8E6B0E001C01D9288
S1130080A438B207E1F70E9483000C9426030C9471
S113009000008830C9F038F4823091F0843091F057
S11300A08130A1F40BC0803259F018F4803131F062
S11300B00DC0803439F0803839F008C080E00895EC
S11300C081E0089582E0089583E0089587E008952B
S11300D0CF93C0E801C0C82F8C2F0E9455028130F5
S11300E031F48C2F869529F0CC23A9F302C0C69550
S11300F099F78C2FCF910895853010F0863011F444
S11301000E94CD0208950E9428010E942E01D4E08D
S113011001E013E0809160000E947C000E94A00234
S1130120809360000E944601809169008230D9F179
S113013028F4882351F08130B1F0ECCF833009F4F6
S113014041C0843009F44EC0E5CF0E94A002882348
S113015019F00E94C302DECFD09369000E94A0026E
S113016080936000D7CF0E946800C82F882391F243
S11301700E944900809361002091600030E0281BB8
S1130180310941F2932F991F9927991F9093680081
S1130190C03118F40E94E10202C00E94D00282E041
S11301A080936900B7CF809160000E945B0288232E
S11301B031F06091600080E00E947102ABCF109337
S11301C06900A8CF9091600080916100981739F080
S11301D068EE73E0809168000E9479029BCFD0930F
S11301E0690098CF6091600082E00E947102809162
S11301F060000E945B02823009F08CCF009369009A
S1130200809160000E94F302809160000E940503C7
S113021081CFCF93DF93E6E7F0E02EE730E0DF0114
S113022011978C91811106C08081181654F4815065
S1130230808307C0823029F48081843014F48F5F76
S113024080833296E217F30751F7DF91CF91089537
S11302508FEF87BB84BB8ABB11BA089510927400D8
S113026010927E001092830010928200109272000D
S1130270E5E7F0E011821082138212821582148263
S1130280178216828FE180937100089540916C006B
S113029050916D009A013695279536952795369598
S11302A02795A7E3BAE10E9417030024880F991F3A
S11302B0001C880F991F001C892F902D68E873E19A
S11302C0869F9001879F300D969F300D1124421711
S11302D0530731F40E94090110926D0010926C00D2
S11302E080916E00893009F128F4833041F0863022
S11302F089F043C08C3021F18D3069F13EC0E0912A
S113030076000E2E000CFF0BEE59FF4F80818160AA
S113031085BB33C0E09178000E2E000CFF0BEE5924
S1130320FF4F8081826085BB28C0E0917A000E2E49
S1130330000CFF0BEE59FF4F8081846085BB1DC00C
S1130340E0917C000E2E000CFF0BEE59FF4F8081D4
S1130350886085BB12C081E080936E0080916C0040
S113036090916D00019690936D0080936C00909134
S11303706F00911131C021E056C080916E008F5FF3
S113038080936E0020916C0030916D002F5F3F4F81
S113039030936D0020936C0090916F00992309F4C1
S11303A047C02DEC829F212D112426952695322FAE
S11303B0330F330F230F821B813071F028F082300A
S11303C0B1F08330F9F028C094FD1092700090FFD2
S11303D023C01092730020C095FF03C081E0809376
S11303E0700091FF19C081E08093730015C096FFDF
S11303F003C082E08093700092FF0EC082E080937D
S113040073000AC099231CF483E08093700093FF67
S113041003C083E080937300892F807F19F02091BB
S11304207E0001C021E09F7031F09091820004C0F1
S113043021E091E001C091E080917400811104C039
S1130440809171008F7301C08FE38093800030919D
S11304508300311103C03091810001C037E0309333
S11304607D0030E8239FA00111243091720060E4E4
S1130470369F90011124242B822B88BB209170007D
S1130480822F880F880F880F3091730040E2349FC9
S113049090011124282B80917D00282B60E8969FE1
S11304A0C0011124822B8BBB089590B3982381E063
S11304B009F480E00895E82FF0E0EE0FFF1FEB58F9
S11304C0FF4FE1810E2E000CFF0BEE59FF4F908180
S11304D0903F29F081E0911103C080E0089582E00B
S11304E00895E62FF0E0EE0FFF1FEB58FF4F8083D7
S11304F008956115710519F120916A0030916B001E
S11305006217730738F02F5F3F4F30936B002093CF
S11305106A00089510926B0010926A00813041F4D1
S113052080917100813358F48F5F80937100089536
S113053080917100882319F081508093710008958F
S113054090917100903149F018F49923A1F00BC0F7
S1130550903229F0903329F006C081E011C082E086
S11305600FC083E00DC0913340F480917F00981355
S113057006C085E605C080E003C088EC01C084E6BF
S113058090937F0008950E94A002882329F068EECA
S113059073E080E00E9479020895809381000895B9
S11305A0843070F421E030E0A90102C0440F551FEB
S11305B08A95E2F7CA0190916F00892B80936F00AE
S11305C00895843078F48C5F21E030E0A90102C002
S11305D0440F551F8A95E2F7CA0190916F00892B49
S11305E080936F000895843078F421E030E0A9010D
S11305F002C0440F551F8A95E2F7CA018095909175
S11306006F00892380936F000895843078F424E088
S1130610280F81E090E002C0880F991F2A95E2F725
S1130620809590916F00892380936F000895A29F15
S1130630B001B39FC001A39F700D811D1124911DB2
S1130640B29F700D811D1124911D0895F894FFCF60
S10B0650070700103070F000F0
S9030000FC
