:100000000C942A000C9447000C9447000C94470071
:100010000C9447000C9447000C9447000C94470044
:100020000C9447000C9447000C9447000C94470034
:100030000C9447000C9447000C9447000C94470024
:100040000C9447000C9447000C9447000C94470014
:100050000C94470011241FBECFE5D8E0DEBFCDBF12
:1000600010E0A0E6B0E0E8E9F5E002C005900D92EE
:10007000A836B107D9F720E0A8E6B0E001C01D928C
:10008000A438B207E1F70E9483000C94CA020C94D2
:1000900000008830C9F038F4823091F0843091F05B
:1000A0008130A1F40BC0803259F018F4803131F066
:1000B0000DC0803439F0803839F008C080E00895F0
:1000C00081E0089582E0089583E0089587E008952F
:1000D000CF93C0E801C0C82F8C2F0E94400281300E
:1000E00031F48C2F869529F0CC23A9F302C0C69554
:1000F00099F78C2FCF910895853010F0863011F448
:100100000E94B80208950E9413010E941901D4E0D0
:10011000C1E013E0809160000E947C000E948B028D
:10012000809360000E943101809169008230A9F1C2
:1001300028F4882349F08130A9F0ECCF8330E1F135
:10014000843009F449C0E6CF0E948B02882319F05D
:100150000E94AE02DFCFD09369000E948B02809391
:100160006000D8CF0E9468008823A1F20E94490055
:10017000809361002091600030E0A901481B510983
:10018000CA01009739F2892F881F8827881F80931A
:10019000680082E080936900BDCF809160000E947A
:1001A0004602882331F06091600080E00E945C028A
:1001B000B1CF10936900AECF909160008091610043
:1001C000981739F068EE73E0809168000E9464022D
:1001D000A1CFD09369009ECF6091600082E00E9421
:1001E0005C02C093690096CFCF93DF93E6E7F0E01F
:1001F0002EE730E0DF0111978C91811106C08081DC
:10020000181654F48150808307C0823029F480810D
:10021000843014F48F5F80833296E217F30751F72E
:10022000DF91CF9108958FEF87BB84BB8ABB11BA52
:1002300008951092740010927E0010928300109224
:10024000820010927200E5E7F0E0118210821382C2
:10025000128215821482178216828FE180937100B8
:10026000089540916C0050916D009A013695279544
:100270003695279536952795A7E3BAE10E94BB02EC
:100280000024880F991F001C880F991F001C892FBC
:10029000902D68E873E1869F9001879F300D969FAF
:1002A000300D11244217530731F40E94F4001092CC
:1002B0006D0010926C0080916E00893009F128F475
:1002C000833041F0863089F043C08C3021F18D308D
:1002D00069F13EC0E09176000E2E000CFF0BEE5946
:1002E000FF4F8081816085BB33C0E09178000E2E86
:1002F000000CFF0BEE59FF4F8081826085BB28C048
:10030000E0917A000E2E000CFF0BEE59FF4F80811A
:10031000846085BB1DC0E0917C000E2E000CFF0B9D
:10032000EE59FF4F8081886085BB12C081E08093C9
:100330006E0080916C0090916D00019690936D001D
:1003400080936C0090916F00911131C021E056C0F4
:1003500080916E008F5F80936E0020916C003091D1
:100360006D002F5F3F4F30936D0020936C00909194
:100370006F00992309F447C02DEC829F212D112491
:1003800026952695322F330F330F230F821B813092
:1003900071F028F08230B1F08330F9F028C094FD7C
:1003A0001092700090FF23C01092730020C095FF40
:1003B00003C081E08093700091FF19C081E08093B9
:1003C000730015C096FF03C082E08093700092FF17
:1003D0000EC082E0809373000AC099231CF483E06E
:1003E0008093700093FF03C083E080937300892F94
:1003F000807F19F020917E0001C021E09F7031F0D4
:100400009091820004C021E091E001C091E08091D0
:100410007400811104C0809171008F7301C08FE35B
:100420008093800030918300311103C030918100AE
:1004300001C037E030937D0030E8239FA0011124F4
:100440003091720060E4369F90011124242B822B9E
:1004500088BB20917000822F880F880F880F309101
:10046000730040E2349F90011124282B80917D007D
:10047000282B60E8969FC0011124822B8BBB089526
:1004800090B3982381E009F480E00895E82FF0E02C
:10049000EE0FFF1FEB58FF4FE1810E2E000CFF0BFC
:1004A000EE59FF4F9081903F29F081E0911103C0F8
:1004B00080E0089582E00895E62FF0E0EE0FFF1F40
:1004C000EB58FF4F808308956115710519F1209154
:1004D0006A0030916B006217730738F02F5F3F4F4F
:1004E00030936B0020936A00089510926B00109275
:1004F0006A00813041F480917100813358F48F5F3C
:1005000080937100089580917100882319F08150C3
:1005100080937100089590917100903149F018F422
:100520009923A1F00BC0903229F0903329F006C036
:1005300081E011C082E00FC083E00DC0913340F430
:1005400080917F00981306C085E605C080E003C057
:1005500088EC01C084E690937F0008950E948B028E
:10056000882329F068EE73E080E00E946402089519
:10057000809381000895A29FB001B39FC001A39F03
:10058000700D811D1124911DB29F700D811D1124CC
:08059000911D0895F894FFCFBE
:08059800070700103070F000AD
:00000001FF
