S02700004C69667473756D756C61746F725F42617369635F56315F41756667616265422E737265630F
S11300000C942A000C9447000C9447000C9447006D
S11300100C9447000C9447000C9447000C94470040
S11300200C9447000C9447000C9447000C94470030
S11300300C9447000C9447000C9447000C94470020
S11300400C9447000C9447000C9447000C94470010
S11300500C94470011241FBECFE5D8E0DEBFCDBF0E
S113006010E0A0E6B0E0E4E3F7E002C005900D92F2
S1130070AC36B107D9F720E0ACE6B0E001C01D9280
S1130080AC38B207E1F70E94F4000C9498030C9486
S11300900000E0916000F0916100209162003091D5
S11300A063002E173F07A9F590916C00913089F5F4
S11300B035C080838091600090916100019620E0BA
S11300C08637920730F0909361008093600090E04F
S11300D025C084E790E0909361008093600081E004
S11300E080936C0090E01AC090E018C090E016C0B5
S11300F090E014C090E012C0909174008917A1F3AD
S113010090917500981791F3909176008913D1CF4F
S1130110EFCF909165008913EFCFECCF892F08952D
S1130120E0916200F0916300809160009091610021
S1130130E817F90721F480916C008823C9F08081C5
S11301408093650086E790E0089740F088E090E0AF
S1130150909363008093620080E0089584E790E0C8
S1130160909363008093620010926C0080E0089585
S113017081E008958830C9F038F4823091F08430F9
S113018091F08130A1F40BC0803259F018F4803121
S113019031F00DC0803439F0803839F008C080E087
S11301A0089581E0089582E0089583E0089587E04A
S11301B00895CF93C0E801C0C82F8C2F0E94C702B6
S11301C0813031F48C2F869529F0CC23A9F302C019
S11301D0C69599F78C2FCF910895853010F086300D
S11301E011F40E943F0308950E949A010E94A00105
S11301F003E014E0FF24F394809164000E94ED0076
S11302000E941203809364000E94B8010E94D900E6
S1130210D82F0E94BA00C82F843090F480916400D3
S1130220C81771F08C2F0E944900811109C0D03188
S113023020F48C2F0E94530303C08C2F0E9442038E
S113024080916E00823009F128F4882341F08130D6
S1130250A1F0D2CF833041F18430B1F1CDCF0E94EF
S11302601203882319F00E943503C6CF10936E0041
S11302700E94120380936400BFCF0E9490008111FA
S1130280BBCF82E080936E00B7CF809164000E9460
S1130290CD02882331F06091640080E00E94E30283
S11302A0ABCF00936E00A8CF90916400809165005D
S11302B0981739F068EE73E080916D000E94EB02AC
S11302C09BCF10936E0098CF6091640082E00E94EF
S11302D0E302809164000E94CD02823009F08CCF49
S11302E0F0926E00809164000E9465038091640026
S11302F00E94770381CFCF93DF93EEE7F0E026E807
S113030030E0DF0111978C91811106C080811816AD
S113031054F48150808307C0823029F48081843072
S113032014F48F5F80833296E217F30751F7DF915D
S1130330CF9108958FEF87BB84BB8ABB11BA089510
S113034010927C001092860010928B0010928A000A
S113035010927A00EDE7F0E011821082138212828B
S113036015821482178216828FE180937900089592
S113037040917100509172009A01369527953695F7
S1130380279536952795A7E3BAE10E9489030024AF
S1130390880F991F001C880F991F001C892F902D0E
S11303A068E873E1869F9001879F300D969F300D1A
S11303B011244217530731F40E947B0110927200FA
S11303C01092710080917300893009F128F4833010
S11303D041F0863089F043C08C3021F18D3069F1D1
S11303E03EC0E0917E000E2E000CFF0BEA59FF4F39
S11303F08081816085BB33C0E09180000E2E000CAB
S1130400FF0BEA59FF4F8081826085BB28C0E091D1
S113041082000E2E000CFF0BEA59FF4F808184608E
S113042085BB1DC0E09184000E2E000CFF0BEA5921
S1130430FF4F8081886085BB12C081E08093730088
S11304408091710090917200019690937200809354
S1130450710090917700911131C021E056C08091D4
S113046073008F5F8093730020917100309172004C
S11304702F5F3F4F3093720020937100909177006B
S1130480992309F447C02DEC829F212D1124269530
S11304902695322F330F330F230F821B813071F0D7
S11304A028F08230B1F08330F9F028C094FD109226
S11304B0780090FF23C010927B0020C095FF03C0FA
S11304C081E08093780091FF19C081E080937B00E4
S11304D015C096FF03C082E08093780092FF0EC09F
S11304E082E080937B000AC099231CF483E080930C
S11304F0780093FF03C083E080937B00892F807F83
S113050019F02091860001C021E09F7031F0909194
S11305108A0004C021E091E001C091E080917C0058
S1130520811104C0809179008F7301C08FE380939F
S1130530880030918B00311103C03091890001C0D3
S113054037E03093850030E8239FA00111243091D7
S11305507A0060E4369F90011124242B822B88BBFF
S113056020917800822F880F880F880F30917B00AC
S113057040E2349F90011124282B80918500282B80
S113058060E8969FC0011124822B8BBB089590B321
S1130590982381E009F480E00895E82FF0E0EE0F5D
S11305A0FF1FE358FF4FE1810E2E000CFF0BEA59A9
S11305B0FF4F9081903F29F081E0911103C080E0CA
S11305C0089582E00895E62FF0E0EE0FFF1FE35850
S11305D0FF4F808308956115710519F120916F0013
S11305E0309170006217730738F02F5F3F4F3093DC
S11305F0700020936F0008951092700010926F00A5
S1130600813041F480917900813358F48F5F809375
S11306107900089580917900882319F0815080939E
S11306207900089590917900903149F018F4992354
S1130630A1F00BC0903229F0903329F006C081E07C
S113064011C082E00FC083E00DC0913340F480916B
S11306508700981306C085E605C080E003C088ECD7
S113066001C084E69093870008950E9412038823B2
S113067029F068EE73E080E00E94EB020895809315
S113068089000895843070F421E030E0A90102C0AB
S1130690440F551F8A95E2F7CA0190917700892B80
S11306A0809377000895843078F48C5F21E030E003
S11306B0A90102C0440F551F8A95E2F7CA0190911F
S11306C07700892B809377000895843078F421E0B3
S11306D030E0A90102C0440F551F8A95E2F7CA0110
S11306E080959091770089238093770008958430D2
S11306F078F424E0280F81E090E002C0880F991F6D
S11307002A95E2F78095909177008923809377006A
S11307100895A29FB001B39FC001A39F700D811DD6
S11307201124911DB29F700D811D1124911D0895F6
S1070730F894FFCF67
S10F073474007400070700103070F0001F
S9030000FC
