S02700004C69667473756D756C61746F725F42617369635F56315F41756667616265422E737265630F
S11300000C942A000C9447000C9447000C9447006D
S11300100C9447000C9447000C9447000C94470040
S11300200C9447000C9447000C9447000C94470030
S11300300C9447000C9447000C9447000C94470020
S11300400C9447000C9447000C9447000C94470010
S11300500C94470011241FBECFE5D8E0DEBFCDBF0E
S113006010E0A0E6B0E0E6E7F7E002C005900D92EC
S1130070A836B107D9F720E0A8E6B0E001C01D9288
S1130080A938B207E1F70E940C010C94B9030C944F
S11300900000CF93DF93EC01AAE6B0E01396EC9155
S11300A0139714969C91E91791F0F0E0E659FF4FED
S11300B08081888380916D008F5F833020F48093EA
S11300C06D0080E005C010926D0080E001C081E009
S11300D0DF91CF9108958830C9F038F4823091F0DF
S11300E0843091F08130A1F40BC0803259F018F4BF
S11300F0803131F00DC0803439F0803839F008C0D7
S113010080E0089581E0089582E0089583E00895F1
S113011087E00895EF92FF920F931F93CF93DF939D
S1130120082F80916E00833008F447C010926E004F
S113013044C089910E946B0081130CC0003128F4E3
S1130140812F0E94740381E045C0812F0E946303C4
S113015081E040C0CE15DF0561F7EAE6F0E03481C6
S1130160832F90E02381BC016F5F7F4F422F50E0CB
S113017064177507F1F0211102C03230E1F0FC017F
S1130180E659FF4F0083003120F4812F0E9474034D
S113019003C0812F0E94630380916E008F5F8330C0
S11301A020F480936E0080E015C010926E0080E011
S11301B011C081E00FC081E00DC0802F0E946B0050
S11301C0182FCAE6D0E00F2EFDE6EF2EF0E0FF2E4A
S11301D0F02DAFCFDF91CF911F910F91FF90EF9052
S11301E00895CF93C0E801C0C82F8C2F0E94E80265
S11301F0813031F48C2F869529F0CC23A9F302C0E9
S1130200C69599F78C2FCF910895853010F08630DC
S113021011F40E9460030895CF93DF931F92CDB72A
S1130220DEB70E94BB010E94C10103E014E0FF2479
S1130230F394809160000E9405010E94330380932F
S113024060000E94D9010E94F10081110E948A007D
S1130250809169008230D1F128F4882351F08130F3
S1130260B1F0E7CF833009F440C0843009F44DC0C5
S1130270E0CF0E943303882319F00E945603D9CF9C
S1130280109369000E94330380936000D2CFCE01A3
S113029001960E9449008111CCCF89810E946B0094
S11302A0809361002091600030E0A901481B51094E
S11302B0CA01009709F4BDCF892F881F8827881F9A
S11302C08093680082E080936900B3CF80916000DE
S11302D00E94EE02882331F06091600080E00E9469
S11302E00403A7CF00936900A4CF9091600080918C
S11302F06100981739F068EE73E0809168000E94FD
S11303000C0397CF1093690094CF6091600082E052
S11303100E940403809160000E94EE02823009F082
S113032088CFF0926900809160000E9486038091DA
S113033060000E9498037DCFCF93DF93EBE7F0E05A
S113034023E830E0DF0111978C91811106C0808190
S1130350181654F48150808307C0823029F48081B8
S1130360843014F48F5F80833296E217F30751F7D9
S1130370DF91CF9108958FEF87BB84BB8ABB11BAFD
S113038008951092790010928300109288001092C0
S1130390870010927700EAE7F0E01182108213825E
S11303A0128215821482178216828FE1809376005E
S11303B0089540917100509172009A0136952795E5
S11303C03695279536952795A7E3BAE10E94AA03A7
S11303D00024880F991F001C880F991F001C892F67
S11303E0902D68E873E1869F9001879F300D969F5A
S11303F0300D11244217530731F40E949C011092CE
S113040072001092710080917300893009F128F410
S1130410833041F0863089F043C08C3021F18D3037
S113042069F13EC0E0917B000E2E000CFF0BEE59EB
S1130430FF4F8081816085BB33C0E0917D000E2E2B
S1130440000CFF0BEE59FF4F8081826085BB28C0F2
S1130450E0917F000E2E000CFF0BEE59FF4F8081C0
S1130460846085BB1DC0E09181000E2E000CFF0B43
S1130470EE59FF4F8081886085BB12C081E0809374
S113048073008091710090917200019690937200B4
S11304908093710090917400911131C021E056C095
S11304A0809173008F5F809373002091710030916D
S11304B072002F5F3F4F3093720020937100909130
S11304C07400992309F447C02DEC829F212D112437
S11304D026952695322F330F330F230F821B81303D
S11304E071F028F08230B1F08330F9F028C094FD27
S11304F01092750090FF23C01092780020C095FFE1
S113050003C081E08093750091FF19C081E080935E
S1130510780015C096FF03C082E08093750092FFB7
S11305200EC082E0809378000AC099231CF483E013
S11305308093750093FF03C083E080937800892F34
S1130540807F19F02091830001C021E09F7031F079
S11305509091870004C021E091E001C091E0809176
S11305607900811104C0809176008F7301C08FE3FC
S11305708093850030918800311103C0309186004A
S113058001C037E03093820030E8239FA00111249A
S11305903091770060E4369F90011124242B822B44
S11305A088BB20917500822F880F880F880F3091A7
S11305B0780040E2349F90011124282B809182001E
S11305C0282B60E8969FC0011124822B8BBB0895D1
S11305D090B3982381E009F480E00895E82FF0E0D7
S11305E0EE0FFF1FE658FF4FE1810E2E000CFF0BAC
S11305F0EE59FF4F9081903F29F081E0911103C0A3
S113060080E0089582E00895E62FF0E0EE0FFF1FEA
S1130610E658FF4F808308956115710519F1209103
S11306206F00309170006217730738F02F5F3F4FEF
S11306303093700020936F00089510927000109210
S11306406F00813041F480917600813358F48F5FDC
S113065080937600089580917600882319F0815064
S113066080937600089590917600903149F018F4C3
S11306709923A1F00BC0903229F0903329F006C0E1
S113068081E011C082E00FC083E00DC0913340F4DB
S113069080918400981306C085E605C080E003C0FD
S11306A088EC01C084E69093840008950E9433038B
S11306B0882329F068EE73E080E00E940C0308951B
S11306C0809386000895843070F421E030E0A9011D
S11306D002C0440F551F8A95E2F7CA019091740035
S11306E0892B809374000895843078F48C5F21E022
S11306F030E0A90102C0440F551F8A95E2F7CA01F0
S113070090917400892B809374000895843078F458
S113071021E030E0A90102C0440F551F8A95E2F799
S1130720CA01809590917400892380937400089580
S1130730843078F424E0280F81E090E002C0880F30
S1130740991F2A95E2F780959091740089238093EC
S113075074000895A29FB001B39FC001A39F700DC0
S1130760811D1124911DB29F700D811D1124911DB5
S10907700895F894FFCF88
S10B0776070700103070F000C9
S9030000FC
